:100000000C942A000C9447000C9447000C94470071
:100010000C9447000C9447000C9447000C94470044
:100020000C9447000C9447000C94F9030C94AD0316
:100030000C9447000C9447000C9447000C94470024
:100040000C9412020C9447000C9447000C94470047
:100050000C94470011241FBECFE5D8E0DEBFCDBF12
:1000600010E0A0E6B0E0E0E0F9E002C005900D92FB
:10007000A036B107D9F720E0A0E6B0E001C01D929C
:10008000A039B207E1F70E94C5010C947E040C94DC
:100090000000982F862F40E0692F0E948302089568
:1000A000CF93DF931F92CDB7DEB7982F862FAE0187
:1000B0004F5F5F4F692F0E94750389810F90DF9119
:1000C000CF91089541E064E082E00E94830241E024
:1000D00065E082E00E94830241E066E082E00E94E7
:1000E000830241E067E082E00E948302089582304B
:1000F000D0F4882319F0813061F0089541E064E084
:1001000081E00E94830241E064E081E00E94FC0201
:10011000089541E065E081E00E94830241E065E0EE
:1001200081E00E94FC020895823080F4882319F057
:10013000813039F0089540E064E081E00E94FC02E3
:10014000089540E065E081E00E94FC020895CF93AD
:100150008A30E0F4C82F482F417064E082E00E94AA
:10016000FC02C1FB442740F965E082E00E94FC02EA
:10017000C2FB442740F966E082E00E94FC02C3FB18
:10018000442740F967E082E00E94FC02CF91089585
:10019000CF939DEC899F912D1124292F269526958B
:1001A0002695220F322F330F330F230FC92FC695F9
:1001B000C695C695821B0E94A70080E00E9477002A
:1001C0002FEF81EE94E0215080409040E1F700C095
:1001D000000080E00E9494008C2F0E94A70081E024
:1001E0000E9477002FEF81EE94E0215080409040F4
:1001F000E1F700C0000081E00E949400CF910895D3
:10020000209161002F5F2093610030E080916000B9
:10021000869590E00F968217930734F041E060E0F6
:1002200080E00E94FC0205C040E060E080E00E94A7
:10023000FC022091610030E08091600090E04E96D9
:100240002817390714F01092610008952091610079
:1002500030E080916000482F469550E0BA01615F20
:100260007F4F621773072CF0445F5F4F42175307AD
:100270005CF090E0AC01425E5F4F4217530754F0D0
:100280004B962817390734F041E061E080E00E9486
:10029000FC02089540E061E080E00E94FC020895C5
:1002A0004091610050E020916000822F869590E09F
:1002B0000F968417950764F4822F90E04E9684176A
:1002C000950734F041E062E080E00E94FC0208956E
:1002D00040E062E080E00E94FC0208951F93CF930B
:1002E000DF9310916100C12FD0E02091600026952E
:1002F00030E0215F3F4F2C173D071CF0812F0E94FB
:10030000C800909160009695292F30E0215F3F4F03
:100310002C173D072CF4812F891B8F500E94C80099
:10032000DF91CF911F91089562E080E00E9450001C
:10033000813059F462E080E00E9450008130D1F3B6
:10034000809160008E5F80936000809160008535B1
:1003500018F085E580936000089562E081E00E94D6
:100360005000813059F462E081E00E9450008130F9
:10037000D1F3809160008250809360008091600092
:10038000811102C010926000089541E060E080E0B9
:100390000E94830241E061E080E00E94830241E02C
:1003A00062E080E00E9483020E94620080E00E947E
:1003B000770081E00E94770062E080E00E944900BF
:1003C00062E081E00E9449000E94D60340E064E6BA
:1003D00070E080E091E00E94E30341E064E670E0B9
:1003E00086E291E00E94E30342E064E670E080E58B
:1003F00091E00E94E30343E064E670E08EE691E062
:100400000E94E30344E065E070E084E991E00E942B
:10041000E30345E065E070E08DEA91E00E94E303CC
:100420007894FFCF1F920F920FB60F9211242F9343
:100430003F934F935F936F937F938F939F93AF936C
:10044000BF93EF93FF9380918F00811115C0E091CE
:100450006900F0916A0085B190E0918380831092E9
:10046000680086B1877F86B9E0916600F0916700E9
:100470003097C1F1099536C080916300E82FF0E014
:10048000EE0FFF1F2091690030916A00E20FF31F09
:1004900025B130E0318320838F5F8093630090919A
:1004A000620089130DC01092680086B1877F86B9FB
:1004B000E0916600F09167003097A1F0099512C0B5
:1004C00087B1807E87B997B180916300E091640025
:1004D000F0916500E80FF11D8081892B87B986B105
:1004E000806486B9FF91EF91BF91AF919F918F91F9
:1004F0007F916F915F914F913F912F910F900FBE20
:100500000F901F901895683008F075C0843008F07F
:1005100072C04130B9F5813091F028F08230D9F0C5
:10052000833029F12FC09AB321E030E0062E02C0BB
:10053000220F331F0A94E2F7292B2ABB23C097B35B
:1005400021E030E0062E02C0220F331F0A94E2F7AA
:10055000292B27BB17C094B321E030E0062E02C040
:10056000220F331F0A94E2F7292B24BB0BC091B34F
:1005700021E030E0062E02C0220F331F0A94E2F77A
:10058000292B21BB411137C0813091F028F08230F6
:10059000D9F0833029F108952AB381E090E002C0B8
:1005A000880F991F6A95E2F7809582238ABB089588
:1005B00027B381E090E002C0880F991F6A95E2F7A7
:1005C0008095822387BB089524B381E090E002C028
:1005D000880F991F6A95E2F78095822384BB08955E
:1005E00021B381E090E002C0880F991F6A95E2F77D
:1005F0008095822381BB0895843008F075C06830EF
:1006000008F072C041113BC0813099F028F082306F
:10061000E9F0833041F133C09BB321E030E0062E96
:1006200002C0220F331F0A94E2F7209529232BBB27
:1006300026C098B321E030E0062E02C0220F331FFF
:100640000A94E2F72095292328BB19C095B321E02D
:1006500030E0062E02C0220F331F0A94E2F72095E5
:10066000292325BB0CC092B321E030E0062E02C046
:10067000220F331F0A94E2F72095292322BB413031
:1006800099F5813089F028F08230C9F0833011F17A
:1006900008952BB381E090E002C0880F991F6A95FE
:1006A000E2F7822B8BBB089528B381E090E002C073
:1006B000880F991F6A95E2F7822B88BB089525B3AE
:1006C00081E090E002C0880F991F6A95E2F7822BC3
:1006D00085BB089522B381E090E002C0880F991F86
:1006E0006A95E2F7822B82BB08958430A8F56830C2
:1006F00098F5813089F028F08230C9F0833011F10B
:10070000089589B390E002C0959587956A95E2F7C0
:100710008170FA018083089586B390E002C09595B8
:1007200087956A95E2F78170FA018083089583B313
:1007300090E002C0959587956A95E2F78170FA017D
:100740008083089580B390E002C0959587956A955F
:10075000E2F78170FA01808308951F920F920FB61D
:100760000F9211242F933F934F935F936F937F9337
:100770008F939F93AF93BF93EF93FF93E0916B00A1
:10078000F0916C00309709F00995FF91EF91BF91BE
:10079000AF919F918F917F916F915F914F913F9119
:1007A0002F910F900FBE0F901F9018958DE083BF73
:1007B00089B7826089BF8CE98CBF81E0809370002B
:1007C00080936F000895009799F0463088F450E0C8
:1007D000FA01EE0FFF1FEE0FFF1F4E0F5F1FFA0112
:1007E000EF58FF4F918380837383628382E3848316
:1007F00008951F920F920FB60F9211242F933F93DB
:100800004F935F936F937F938F939F93AF93BF9318
:10081000CF93EF93FF9380916F00815080936F008F
:10082000811146C080916D0090916E000196909369
:100830006E0080936D00C0E035C08C2F90E0FC010D
:10084000EE0FFF1FEE0FFF1FE80FF91FEF58FF4FCE
:100850000190F081E02D309721F1DC01AA0FBB1F40
:10086000AA0FBB1FA80FB91FAF58BF4F14962C91EA
:100870002233B9F4DC01AA0FBB1FAA0FBB1F8A0FDA
:100880009B1FDC01AF58BF4F12966D917C9113975F
:1008900080916D0090916E000E946A04892B09F48A
:1008A0000995CF5FC63048F28091700080936F0049
:1008B000FF91EF91CF91BF91AF919F918F917F91D8
:1008C0006F915F914F913F912F910F900FBE0F90BD
:1008D0001F901895AA1BBB1B51E107C0AA1FBB1F85
:1008E000A617B70710F0A61BB70B881F991F5A95BC
:1008F000A9F780959095BC01CD010895F894FFCF9C
:00000001FF
